:08000000803102288731FD2F39
:100F760072087007F4007308713DF5007508F100FA
:100F86007408F00008000F302000A0000030A10017
:100F96000C30F0000030F1000F30F2000030F300AA
:100FA6008731BB27873171082000A5007008A4008F
:100FB60020002435A400250DA500A201A3012000D0
:100FC6002408013EA4000030253DA5000130A207FB
:100FD6000030A33D2308803AFA0080307A02031DD0
:100FE600F62F0A302202031CF92FFA2FE22FDB2FED
:0A0FF6008031022820008731C62F49
:020000040001F9
:08000000FF3FFF3FFF3FFF3F00
:04000E00FF3FFF3F72
:00000001FF
